:020000040800F2
:10000000005000207D340008912100089321000851
:1000100095210008972100089921000800000000A0
:100020000000000000000000000000009B2100080C
:100030009D210008000000009F210008A121000868
:10004000C5340008C5340008C5340008C5340008AC
:10005000C5340008C5340008C5340008C53400089C
:10006000C5340008C5340008C5340008C53400088C
:10007000C5340008C5340008C5340008A5210008AF
:10008000C5340008C5340008C5340008C53400086C
:10009000C5340008C5340008C5340008C53400085C
:1000A000C5340008C5340008C5340008C53400084C
:1000B000C5340008C5340008C5340008C53400083C
:1000C000C5340008C5340008C5340008C53400082C
:1000D000C5340008B1210008C5340008C534000843
:1000E000C5340008C5340008C5340008000000000D
:1000F0000000000000000000000000000000000000
:0C01000000000000000000005FF808F1A3
:1001100010B5054C237833B9044B13B10448AFF341
:1001200000800123237010BD240200200000000085
:100130006C98000808B5034B1BB103490348AFF3A3
:10014000008008BD00000000280200206C98000814
:10015000034613F8012B002AFBD1181A0138704707
:1001600081F0004102E000BF83F0004330B54FEA68
:1001700041044FEA430594EA050F08BF90EA020FD5
:100180001FBF54EA000C55EA020C7FEA645C7FEA68
:10019000655C00F0E2804FEA5454D4EB5555B8BF8B
:1001A0006D420CDD2C4480EA020281EA030382EAFC
:1001B000000083EA010180EA020281EA0303362D8E
:1001C00088BF30BD11F0004F4FEA01314FF4801C61
:1001D0004CEA113102D0404261EB410113F0004F73
:1001E0004FEA03334CEA133302D0524263EB43032A
:1001F00094EA050F00F0A780A4F10104D5F1200EC8
:100200000DDB02FA0EFC22FA05F2801841F1000122
:1002100003FA0EF2801843FA05F359410EE0A5F1F6
:1002200020050EF1200E012A03FA0EFC28BF4CF027
:10023000020C43FA05F3C01851EBE37101F00045DD
:1002400007D54FF0000EDCF1000C7EEB00006EEBEA
:100250000101B1F5801F1BD3B1F5001F0CD3490874
:100260005FEA30004FEA3C0C04F101044FEA4452CB
:1002700012F5800F80F09A80BCF1004F08BF5FEA52
:10028000500C50F1000041EB045141EA050130BD32
:100290005FEA4C0C404141EB0101013C28BFB1F544
:1002A000801FE9D291F0000F04BF01460020B1FA8F
:1002B00081F308BF2033A3F10B03B3F120020CDA62
:1002C0000C3208DD02F1140CC2F10C0201FA0CF040
:1002D00021FA02F10CE002F11402D8BFC2F1200CA5
:1002E00001FA02F120FA0CFCDCBF41EA0C0190405B
:1002F000E41AA2BF01EB0451294330BD6FEA0404A4
:100300001F3C1CDA0C340EDC04F11404C4F120028E
:1003100020FA04F001FA02F340EA030021FA04F3A0
:1003200045EA030130BDC4F10C04C4F1200220FAF7
:1003300002F001FA04F340EA0300294630BD21FA35
:1003400004F0294630BD94F0000F83F4801306BFFB
:1003500081F480110134013D4EE77FEA645C18BFEF
:100360007FEA655C29D094EA050F08BF90EA020F86
:1003700005D054EA000C04BF1946104630BD91EA7E
:10038000030F1EBF0021002030BD5FEA545C05D181
:100390004000494128BF41F0004130BD14F58004C0
:1003A0003CBF01F5801130BD01F0004545F0FE4134
:1003B00041F470014FF0000030BD7FEA645C1ABF69
:1003C000194610467FEA655C1CBF0B46024650EAA0
:1003D000013406BF52EA033591EA030F41F40021CC
:1003E00030BD00BF90F0000F04BF0021704730B552
:1003F0004FF4806404F132044FF000054FF0000127
:1004000050E700BF90F0000F04BF0021704730B5E7
:100410004FF4806404F1320410F0004548BF4042BC
:100420004FF000013EE700BF42004FEAE2014FEA11
:1004300031014FEA02701FBF12F07F4393F07F4FEC
:1004400081F06051704732F07F4208BF704793F0EF
:100450007F4F04BF41F40021704730B54FF4607402
:1004600001F0004521F000411CE700BF50EA010205
:1004700008BF704730B54FF000050AE050EA0102AE
:1004800008BF704730B511F0004502D5404261EB1E
:1004900041014FF4806404F132045FEA915C3FF45F
:1004A000D8AE4FF003025FEADC0C18BF03325FEAFC
:1004B000DC0C18BF033202EBDC02C2F1200300FAAD
:1004C00003FC20FA02F001FA03FE40EA0E0021FAD2
:1004D00002F11444BDE600BF70B54FF0FF0C4CF4C0
:1004E000E06C1CEA11541DBF1CEA135594EA0C0F72
:1004F00095EA0C0F00F0DEF82C4481EA030621EAAD
:100500004C5123EA4C5350EA013518BF52EA0335E7
:1005100041F4801143F4801338D0A0FB02CE4FF099
:100520000005E1FB02E506F00042E0FB03E54FF0C9
:100530000006E1FB03569CF0000F18BF4EF0010EC1
:10054000A4F1FF04B6F5007F64F5407404D25FEABD
:100550004E0E6D4146EB060642EAC62141EA555170
:100560004FEAC52040EA5E504FEACE2EB4F1FD0CB2
:1005700088BFBCF5E06F1ED8BEF1004F08BF5FEA30
:10058000500E50F1000041EB045170BD06F00046E2
:1005900046EA010140EA020081EA0301B4EB5C048F
:1005A000C2BFD4EB0C0541EA045170BD41F4801187
:1005B0004FF0000E013C00F3AB8014F1360FDEBFAC
:1005C000002001F0004170BDC4F10004203C35DA88
:1005D0000C341BDC04F11404C4F1200500FA05F30B
:1005E00020FA04F001FA05F240EA020001F00042AC
:1005F00021F0004110EBD37021FA04F642EB060122
:100600005EEA430E08BF20EAD37070BDC4F10C044B
:10061000C4F1200500FA04F320FA05F001FA04F20F
:1006200040EA020001F0004110EBD37041F10001FB
:100630005EEA430E08BF20EAD37070BDC4F1200506
:1006400000FA05F24EEA020E20FA04F301FA05F26E
:1006500043EA020321FA04F001F0004121FA04F216
:1006600020EA020000EBD3705EEA430E08BF20EAE6
:10067000D37070BD94F0000F0FD101F00046400020
:1006800041EB010111F4801F08BF013CF7D041EAA2
:10069000060195F0000F18BF704703F000465200A6
:1006A00043EB030313F4801F08BF013DF7D043EA77
:1006B0000603704794EA0C0F0CEA135518BF95EA2D
:1006C0000C0F0CD050EA410618BF52EA4306D1D1B4
:1006D00081EA030101F000414FF0000070BD50EAD3
:1006E000410606BF1046194652EA430619D094EA5D
:1006F0000C0F02D150EA013613D195EA0C0F05D147
:1007000052EA03361CBF104619460AD181EA03019A
:1007100001F0004141F0FE4141F470014FF0000052
:1007200070BD41F0FE4141F4780170BD70B54FF0ED
:10073000FF0C4CF4E06C1CEA11541DBF1CEA13556D
:1007400094EA0C0F95EA0C0F00F0A7F8A4EB05044F
:1007500081EA030E52EA03354FEA013100F0888046
:100760004FEA03334FF0805545EA131343EA12630F
:100770004FEA022245EA111545EA10654FEA0026C4
:100780000EF000419D4208BF964244F1FD0404F57D
:10079000407402D25B084FEA3202B61A65EB0305D9
:1007A0005B084FEA32024FF480104FF4002CB6EB96
:1007B000020E75EB030E22BFB61A754640EA0C0016
:1007C0005B084FEA3202B6EB020E75EB030E22BF56
:1007D000B61A754640EA5C005B084FEA3202B6EB97
:1007E000020E75EB030E22BFB61A754640EA9C0056
:1007F0005B084FEA3202B6EB020E75EB030E22BF26
:10080000B61A754640EADC0055EA060E18D04FEAE3
:10081000051545EA16754FEA06164FEAC30343EA83
:1008200052734FEAC2025FEA1C1CC0D111F4801F50
:100830000BD141EA00014FF000004FF0004CB6E749
:1008400011F4801F04BF01430020B4F1FD0C88BFE8
:10085000BCF5E06F3FF6AFAEB5EB030C04BFB6EBF3
:10086000020C5FEA500C50F1000041EB045170BDE6
:100870000EF0004E4EEA113114EB5C04C2BFD4EB13
:100880000C0541EA045170BD41F480114FF0000E97
:10089000013C90E645EA060E8DE60CEA135594EA13
:1008A0000C0F08BF95EA0C0F3FF43BAF94EA0C0F16
:1008B0000AD150EA01347FF434AF95EA0C0F7FF48B
:1008C00025AF104619462CE795EA0C0F06D152EADF
:1008D00003353FF4FDAE1046194622E750EA4106C3
:1008E00018BF52EA43067FF4C5AE50EA41047FF4D4
:1008F0000DAF52EA43057FF4EBAE12E74FF0FF3C39
:1009000006E000BF4FF0010C02E000BF4FF0010C09
:100910004DF804CD4FEA410C7FEA6C5C4FEA430C82
:1009200018BF7FEA6C5C1BD001B050EA410C0CBFD1
:1009300052EA430C91EA030F02BF90EA020F002033
:10094000704710F1000F91EA030F58BF994208BF9A
:1009500090422CBFD8176FEAE37040F00100704757
:100960004FEA410C7FEA6C5C02D150EA013C07D1AE
:100970004FEA430C7FEA6C5CD6D152EA033CD3D0F9
:100980005DF8040B704700BF8446104662468C46F3
:100990001946634600E000BF01B5FFF7B7FF002826
:1009A00048BF10F1000F01BD4DF808EDFFF7F4FF4F
:1009B0000CBF012000205DF808FB00BF4DF808EDDA
:1009C000FFF7EAFF34BF012000205DF808FB00BFFD
:1009D0004DF808EDFFF7E0FF94BF012000205DF81F
:1009E00008FB00BF4DF808EDFFF7CEFF94BF0120D4
:1009F00000205DF808FB00BF4DF808EDFFF7C4FFCD
:100A000034BF012000205DF808FB00BF4FEA410C15
:100A10007FEA6C5C02D150EA013C0AD14FEA430CF8
:100A20007FEA6C5C02D152EA033C02D14FF0000035
:100A300070474FF0010070474FEA410212F5001273
:100A400015D211D56FF47873B3EB625212D94FEA15
:100A5000C12343F0004343EA505311F0004F23FAFF
:100A600002F018BF404270474FF00000704750EA54
:100A7000013005D111F0004008BF6FF00040704711
:100A80004FF00000704700BF4A0011D212F500126B
:100A900011D20DD56FF47873B3EB62520ED44FEAD6
:100AA000C12343F0004343EA505323FA02F0704756
:100AB0004FF00000704750EA013002D14FF0FF3094
:100AC00070474FF0000070474FEA4102B2F1E04337
:100AD00024BFB3F5001CDCF1FE5C0DD901F0004C25
:100AE0004FEAC0024CEA5070B2F1004F40EB830075
:100AF00008BF20F00100704711F0804F21D113F1A1
:100B00003872BCBF01F00040704741F480114FEAD9
:100B10005252C2F11802C2F1200C10FA0CF320FA62
:100B200002F018BF40F001004FEAC1234FEAD3237F
:100B300003FA0CFC40EA0C0023FA02F34FEA4303E9
:100B4000CCE77FEA625307D150EA01331EBF4FF072
:100B5000FE4040F44000704701F0004040F0FE408D
:100B600040F40000704700BF53B94AB9002908BFDC
:100B700000281CBF4FF0FF314FF0FF3000F0AEB93E
:100B8000ADF1080C6DE904CE00F03EF8DDF804E0AC
:100B9000DDE9022304B0704738B505460C46002253
:100BA000002328462146FFF709FF28B92846214699
:100BB000BDE8384000F00AB8284604F1004100F0D2
:100BC00005F8404261EB410138BD00BFD0B50022BD
:100BD0000B4B06460F46FFF77FFCFFF755FF044619
:100BE000FFF700FC0022074BFFF776FC02460B469E
:100BF00030463946FFF7B8FAFFF746FF2146D0BD29
:100C00000000F03D0000F0412DE9F047089E0D4640
:100C100004468846002B4DD18A42944668D9B2FAE0
:100C200082F252B101FA02F3C2F1200120FA01F17D
:100C30000CFA02FC41EA030894404FEA1C41B8FB5D
:100C4000F1F71FFA8CFE01FB178807FB0EF0230C4F
:100C500043EA084398420AD91CEB030307F1FF3526
:100C600080F01E81984240F21B81023F63441B1AB0
:100C7000B3FBF1F001FB103300FB0EFEA4B244EA1B
:100C80000344A6450AD91CEB040400F1FF3380F0AD
:100C90000981A64540F20681644402380021A4EB94
:100CA0000E0440EA07401EB10023D440C6E90043C9
:100CB000BDE8F0878B4208D9002E00F0EE800021BD
:100CC000C6E900050846BDE8F087B3FA83F10029BC
:100CD0004AD1AB4202D3824200F2FC80841A65EB17
:100CE000030301209846002EE2D0C6E90048DFE762
:100CF00002B9FFDEB2FA82F2002A40F09180A1EB45
:100D00000C0001214FEA1C471FFA8CFEB0FBF7F3E1
:100D100007FB1300250C45EA00450EFB03F0A84233
:100D200008D91CEB050503F1FF3802D2A84200F2F6
:100D3000CE8043462D1AB5FBF7F007FB10550EFB8E
:100D400000FEA4B244EA0544A64508D91CEB0404FD
:100D500000F1FF3502D2A64500F2B6802846A4EB8A
:100D60000E0440EA03409EE7C1F120078B4022FABF
:100D700007FC4CEA030C25FA07FA4FEA1C49BAFBB8
:100D8000F9F820FA07F309FB18AA8D401FFA8CFE28
:100D90001D4300FA01F308FB0EF02C0C44EA0A4450
:100DA000A04202FA01F20BD91CEB040408F1FF3A4D
:100DB00080F08880A04240F28580A8F10208644457
:100DC000241AB4FBF9F009FB104400FB0EFEADB28F
:100DD00045EA0444A64508D91CEB040400F1FF359C
:100DE0006CD2A6456AD90238644440EA0840A0FBA8
:100DF0000295A4EB0E04AC42C846AE4656D353D07F
:100E0000002E69D0B3EB080264EB0E0422FA01F362
:100E100004FA07F71F43CC40C6E90074002147E7F6
:100E20000CFA02FCC2F1200125FA01F34FEA1C473B
:100E300020FA01F195400D43B3FBF7F107FB1133A5
:100E40001FFA8CFE280C40EA034001FB0EF383429C
:100E500004FA02F408D91CEB000001F1FF382FD28C
:100E600083422DD902396044C01AB0FBF7F307FB67
:100E70001300ADB245EA004503FB0EF0A84208D9C5
:100E80001CEB050503F1FF3816D2A84214D9023B2A
:100E90006544281A43EA014138E73146304607E7FE
:100EA0002F46E4E61846F9E64B45A9D2B9EB02080D
:100EB00065EB0C0E0138A3E74346EAE7284694E7C2
:100EC0004146D1E7D0467BE76444023847E7023B1E
:100ED00065442FE7084606E73146E9E6704700BF5C
:100EE0001FB5044603F0E4FF0828236809D850B171
:100EF0000138072807D8DFE800F01922062A06067D
:100F00000632102833D01B4A93420DD101221A4BCE
:100F10001A491A701A48642204F018F8194B1A6812
:100F2000136823F00403136004B010BD0022009284
:100F3000196800915968009100996264E3E7002202
:100F4000019219680191596801910199F5E7002210
:100F5000029219680291596802910299EDE7002204
:100F6000039219680391596803910399E5E70022F8
:100F7000E3E700BF003801409C040020C4020020C9
:100F8000480400206403002008B50268094B9A4217
:100F90000FD10122084B09481A70094B64221980AD
:100FA000084903F0D3FF084B1A68136823F00403C1
:100FB000136008BD003801409C0400204804002054
:100FC00030030020C402002064030020026808B53A
:100FD000124B1A6042685A608268DA6004229A6092
:100FE00008221A6100221A750D4A00F10C03143010
:100FF00013F8011B834202F8011BF9D1094802F0E2
:101000001FFC0028FAD0084B054A0449054802F0A5
:10101000CDFBB0FA80F0400908BD00BF48020020B7
:10102000400200203C0300206002002070B5284BE5
:10103000284E1C68284D86B0002C36D00023274A45
:10104000CDE90223336853B901223260244A01A852
:10105000CDE90423FFF7BAFF0A2002F07DFA2B68DE
:1010600053B901222A601F4A01A8CDE90423FFF7E2
:10107000ADFF0A2002F070FA1B4B1C4C049323684E
:1010800001A81BBA0593FFF7A1FF022002F064FA42
:10109000174B01A8049323681BBA0593FFF796FF2B
:1010A000052002F059FA06B070BD0F4B01A8CDE93A
:1010B0000434FFF78BFF0A2002F04EFA0C4B01A814
:1010C000CDE90434FFF782FF34602C60E8E700BF0D
:1010D0003C05002098040020900400200100000638
:1010E000230D2001230D2002230020019404002061
:1010F000230020022DE9F041A24C94F84C3033B982
:10110000A14B1B78DD2B45D1022384F84C3094F899
:101110004C50012D40F0E1809B4EB378902B3DD197
:1011200032797379322003EB0223A380327A737A07
:1011300003EB0223E380B27AF37A002603EB022367
:101140000A229BB26383B3FBF2F3904A904C136084
:101150009523A370822323738E4B1E6002F0FCF94B
:101160002A464FF400518C4802F042FE022002F061
:10117000F3F964230D222146884803F012FC32461D
:1011800085484FF4005102F033FEBDE8F0410120E4
:1011900002F0E2B9A52BBAD10123B6E7912B0BD10E
:1011A0003279737903EB02232385F279337A03EBE7
:1011B00002236385BDE8F081922BFBD0932B0BD1EA
:1011C000737A327A1B0403EB0263B27A03EB0223D5
:1011D000F27A1344A360EDE7942B04D13379A3771B
:1011E0007379E377E6E7DFF8AC816D4BD8F8000060
:1011F0001A886C4D17183146284403F0FFFE4E2F15
:10120000C8F80070D6D17279B37903EB0223A385B5
:10121000EA792B7A03EB0223E3856A7AAB7A03EB54
:1012200002232386AA7CEB7C03EB022363862A7DC0
:101230006B7D03EB0223A386AA7DEB7D03EB0223E8
:10124000E386EA7F95F8203003EB0223238795F8A5
:10125000212095F8223003EB0223638795F82320A1
:1012600095F8243003EB0223A38795F82C2095F8FA
:101270002D3003EB0223E38795F82E2095F82F30CD
:1012800003EB0223A4F8403095F8302095F8313074
:1012900003EB0223A4F8423095F8392095F83A3050
:1012A00003EB0223A4F8443095F83B2095F83C303A
:1012B00003EB0223A4F8463095F83D2095F83E3024
:1012C00003EB0223A4F8483095F8462095F8473000
:1012D00003EB0223A4F84A306CE7022D7FF46AAFD7
:1012E000294B5A78032A61D1002619795A79E68068
:1012F00002EB0122A280197A5A7A02EB0122A26043
:10130000997ADA7A02EB0122A281197B5A7B02EBED
:1013100001222282997BDA7B02EB01226282197C14
:101320005A7C02EB0122A282997CDA7C02EB012238
:10133000E282197D5A7D02EB012222839A7DD97DBA
:1013400022771A7E618362775A7EA2779A7ED87E50
:10135000E2771A7F02EB002222845A7F9B7F0E489D
:1013600003EB02236384094B012219604FF40051FF
:1013700002F03EFD284602F0EFF8642307220A49F6
:10138000FAE600BF68020020C4020020B802002074
:101390000E000020A404002000100140480400209A
:1013A00030030020A804002007000020042A7FF456
:1013B00001AFDA78197984F824205A7902EB0122F6
:1013C000A2859979DA7902EB0122E285197A5A7AB3
:1013D00002EB01222286997ADA7A02EB01226286F6
:1013E000197B5A7B02EB0122A286997BDA7B02EB06
:1013F0000122E286197C5A7C02EB01222287997C29
:10140000DA7C02EB01226287197D5A7D02EB012210
:10141000A287997DDA7D02EB0122E287197E5A7E4E
:1014200002EB0122A4F84020997EDA7E02EB012231
:10143000A4F84220197F5A7F02EB0122A4F844202D
:10144000997FDA7F02EB0122A4F8462093F820105E
:1014500093F8212002EB0122A4F8482093F82220DF
:1014600093F8233034E700BF2DE9F0413E4B3F4C69
:101470001A784AB100221A70FFF73CFE032323605A
:1014800002F064F83A4B1860256805BB01224FF45E
:101490000051384802F0ACFC022002F05DF86423F1
:1014A00007223549354803F07CFA2A464FF40051AB
:1014B000304802F09DFC012002F04EF82368013311
:1014C000236002F043F82A4B1860BDE8F081012D3B
:1014D00034D12B4B93F84C70002FF6D102F036F834
:1014E000DFF88C80D8F80030C01AB0F5FA7FECD95C
:1014F0009023244E2A46B3707D234FF400511D489B
:101500003373377102F074FC022002F025F8642373
:101510000D223146194803F044FA3A464FF400517F
:10152000144802F065FC284602F016F823680133DF
:10153000236002F00BF8C8F80000C6E7022DC4D102
:101540000F4B93F84C30002BBFD101F0FFFF084D3B
:101550002B68C01AB0F57A7FB7D901F0F7FF0323E3
:1015600028602360B1E700BF9C040020280300200E
:10157000C0020020001001400000002048040020AC
:10158000680200200E0000200A68A0F50040831ABF
:1015900003F5004010B54442A4B280B258BF604287
:1015A00013F5004FACBFA0F5004000F5004010441B
:1015B000086000F5004010BD08B5054B05491B68E3
:1015C000586A80B2FFF7E0FF034B186008BD00BF08
:1015D0000004002038030020340300204FF4805121
:1015E000084B094A99804FF400511A60DA60198259
:1015F0009A614FF480415A624FF4004299831A85F0
:10160000704700BF0C050020000C01402DE9F0419F
:101610000024504DDFF84081504E01F097FFA9881B
:101620000746286802F0DEFB002830D1AA7972B99B
:10163000AB68FB1A322B0AD90123EA71AB71AF6098
:101640000134042C05F10C05E7D1BDE8F081EB79FC
:10165000002BF5D1A868381AB0F57A7FF0D90123AC
:10166000EB71002CECD1D8F800300133022BD4BF41
:101670001A462246C8F80020394A2346116801B1AB
:101680001460384A1360384A82F84C30D8E7012891
:10169000D6D1AB79002BD3D0AB68FB1A322BCFD984
:1016A0000023AB71EB79AF60002BC9D1D8F80030C3
:1016B000012B1FD174B9224621462A4B34601C608D
:1016C000294B83F84C402C330132102A23F8021B9B
:1016D000FAD1B5E7012C05D13368013B48BF03239C
:1016E0003360ADE7022CABD133680133032BC8BFA5
:1016F0000023F5E7022BA3D154B9194B1A68002A2D
:101700000CBF012200221A609AD0184B1C6097E788
:10171000012C0ED1124B1B68002B91D042F210719C
:10172000124A136803F57A738B42D4BF13601160B9
:1017300086E7022C84D10A4B1B68002B80D00B4A11
:101740000B491368A3F57A738B42ACBF1360116029
:1017500076E700BF0C0500202C030020A004002029
:101760003C0500202803002068020020940400208B
:10177000F0D8FFFF2DE9F04FBD4B8BB01F68002F55
:1017800051D1BC4CBC4A23680C2106A801F0CEFC08
:10179000384601F041FD1221022001F0E9FDB74A6F
:1017A000012306CA06A801F0CFFD2368A3B9B44CF3
:1017B0002A21022001F0DCFD94E806000123B14853
:1017C00001F0C2FD3521022001F0D2FD94E80600AF
:1017D0000123AD4801F0B8FD012400252646A84F9D
:1017E0000121022001F0C4FD97E806002B46A7481E
:1017F00001F0AAFD0121372001F0BAFD97E80600AB
:101800003346A34801F0A0FD0121502001F0B0FDB6
:1018100097E8060023469F4801F096FD0BB0BDE80F
:10182000F04F01F009BD012F40F06A819A4C002071
:1018300001F0F2FC94F84C60002E00F0F080974B21
:101840001B68002B45D1964B964A1B68062103A8BE
:1018500001F06CFC1221022001F08AFD874A3B4610
:1018600006CA03A801F070FD2D21022001F080FDC1
:1018700094F84C308C4D012B15BF3B46D5E9001236
:10188000D5E90012894818BF894801F05DFDA0889C
:10189000FEF7B8FD94F84C300022022B0CBF854BAC
:1018A000854BFEF743FFFFF70FF9FEF7BDFD834AB7
:1018B000CDE900010C2106A801F038FC2D213F20C4
:1018C00001F056FD95E80600012306A801F03CFD55
:1018D0003DE0022B4EDC0CBF082600264FF0000531
:1018E0004FF002074FF0000ADFF8D4B1DFF8D491CF
:1018F0000CBF3C342C34042D4FF00C012BD0032DA5
:101900002ADC694310313846013501F0FC0101F051
:101910002FFD012D208805EB060820D0FEB1FEF733
:1019200071FD52465B46FEF701FF4346CDE90001DB
:10193000654A0F2106A801F0F9FB644A012306CA93
:1019400006A801F001FD082D04F10204D3D1012401
:101950000026254643E7412769432039D3E7FEF7B0
:1019600051FD52465B46FEF7E1FE43464A46CDE94D
:101970000001DEE734F82C5F2E4634F8023B0137D5
:101980009D4228BF1D469E4238BF1E46102FF4D1EF
:101990000F21022001F0ECFC2846FEF733FD484BF6
:1019A0000022FEF7C3FE404CCDE90001484A0F215A
:1019B00006A801F0BBFB94E80600012306A801F08D
:1019C000C3FC2221022001F0D3FC3046FEF71AFDB1
:1019D0003B4B0022FEF7AAFE3E4ACDE900010F2153
:1019E00006A801F0A3FB94E80600012306A801F075
:1019F000ABFC3621022001F0BBFC701BFEF702FDA0
:101A00002F4B0022FEF792FE334ACDE900010F2151
:101A100006A801F08BFB1A4A012306CA55E72F4B93
:101A2000174D1C685CB93521022001F0A1FC95E836
:101A300006003B462A4801F087FC3C4689E7012C1A
:101A40000AD13521022001F093FC95E806002346D7
:101A5000244801F079FC7CE7022C47D1352120464F
:101A600001F086FC95E806003B461F48E3E700BF0F
:101A70002C03002034030020889800083000002048
:101A8000400000208B9800089998000820990008D1
:101A9000289900082C99000868020020A004002062
:101AA000B8020020A398000820000020F498000845
:101AB000EB9800080000594000002440A898000856
:101AC00000408F40B7980008AF9800083800002009
:101AD000C0980008CA980008D4980008280300207D
:101AE000E1980008E6980008EF980008A5DD352188
:101AF000022001F03DFC95E806003B4633489AE79A
:101B0000022F5FD10020324D01F086FB314B2C7843
:101B1000D3F80080003C18BF0124B8F1000F19D1A0
:101B20002D4E2A21384601F023FC96E806000123B9
:101B30002A4801F009FC3521384601F019FC96E8E5
:101B400006000123264801F0FFFB85F800800126EE
:101B5000354644E6234A03AB51681068128903C333
:101B60001A8001F0F3FC204B0C211A68142306465E
:101B700092FBF3F306A81D4A01F0D8FA1221384669
:101B800001F0F6FB1A4A012306CA06A801F0DCFBA5
:101B90002D21384601F0ECFB2B78164A03B10123C6
:101BA00006CA154F03A801F0CFFB3868361A642E19
:101BB000CDD92B78B3FA83F35B092B7001F0C6FC07
:101BC0003860C4E701242646C3E600BFFA9800083F
:101BD000640200203C05002040000020009900081D
:101BE0001099000833990008940400208898000890
:101BF0003000002020000020BC02002010B590B072
:101C00001422002108A803F021FA1422002101A8BF
:101C100003F01CFA02244FF480330122CDE90D4376
:101C2000CDE906234FF4E01306A80A920F9302F0C1
:101C3000E5F808B172B6FEE70F23CDE901344FF4A1
:101C400080630390CDE90430214601A802F098FAA0
:101C500008B172B6FEE710B010BD000080B5A84C08
:101C600092B001F055FCFFF7C9FF1022002108A82F
:101C700003F0ECF9A369002243F01003A361A36908
:101C80004FF4005103F010030293029BA3699D4897
:101C900043F02003A361A369002503F0200303930D
:101CA000039BA369012743F00403A361A3694FF0D9
:101CB000020803F004030493049BA369924E43F0CB
:101CC0000803A361A36903F008030593059B02F0D1
:101CD0008FF8002240218D4802F08AF8002203216B
:101CE0008B4802F085F84FF40053864808A9CDE9E7
:101CF0000837CDE90A5801F09BFF4023834808A923
:101D0000CDE90837CDE90A5801F092FF0323804856
:101D100008A9CDE90837CDE90A5801F089FF4FF449
:101D200070437B4808A9CDE908350A9501F080FF8A
:101D300063692A463B436361636929463B400F2040
:101D40000193019B01F0B4FD0F2001F0E3FD4FF47E
:101D50001653DFF8C0E13046C6E900E30C23C6E9BC
:101D60000255C6E905353561F56102F0EBFD044623
:101D700008B172B6FEE70146202209A803F066F911
:101D8000654D664B2846C5E900344FF6FF7308A938
:101D9000CDE90644C5E90334AC60AC6108970A9705
:101DA0000E9702F0ADFC08B172B6FEE7CDE9060071
:101DB00006A9284602F0FAFC034608B172B6FEE70F
:101DC0004FF482725648574C4FF4007CC0E90042F1
:101DD0004FF40042C0E90433C0E90223C0E90833EC
:101DE000302283620A23C0E906C2C36202F0E8FA25
:101DF00008B172B6FEE704234B4C4C4A4FF4602105
:101E0000C4E900234FF48013C4E904134FF4807332
:101E1000C4E90200A3612046A38301F0AFFB08B12F
:101E200072B6FEE7CDE90D00CDE90800CDE90A0064
:101E30000C9008A920460F97109701F01AFC08B1E2
:101E400072B6FEE7204601F083FC08B172B6FEE7E9
:101E5000204648F6024101F007FD044608B172B67B
:101E6000FEE764223249304603F070F8314B3C21E2
:101E70001A682846136823F00403136002F0ACFBD1
:101E800001F096FAFFF7AAFB1220414601F070FA22
:101E9000384601F0C1F9284A234606CA274801F00E
:101EA00053FA1921122001F063FA254A234606CA83
:101EB000244801F049FA3821102001F059FA224A49
:101EC000234606CA214801F03FFA01F0B5F94FF464
:101ED000FA7001F041FB1E4CFFF798FB236823B911
:101EE000FFF76AFBFFF746FCF6E7012B02D1FFF78D
:101EF000BBFAF7E7022BF5D1FFF798F8F2E700BF3E
:101F00000010024000100140480400200008014079
:101F1000000C01400038014000040020000800408F
:101F2000A8030020003001403C0300200064004072
:101F3000C402002064030020200000203E99000815
:101F40002800002048990008380000204F99000818
:101F50002C03002072B6FEE70E4B82B09A6942F065
:101F600001029A619A6902F001020092009ADA690C
:101F700042F08052DA61DB69074A03F08053019333
:101F8000019B536823F0E06343F00073536002B099
:101F9000704700BF001002400000014010B5044629
:101FA00086B01022002102A803F050F822681A4BD4
:101FB0009A422ED103F5D633DA69184842F00072FE
:101FC000DA61DA6902A902F000720092009A9A6955
:101FD00042F008029A619B6903F008030193019B98
:101FE0004FF48073029301F023FE4FF4007202233A
:101FF000CDE902230323094802A9059301F018FE45
:10200000074A536823F4C04343F0E06343F480433A
:10201000536006B010BD00BF00640040000C0140DA
:102020000000014010B5044686B01022002102A82D
:1020300003F00CF82268114B9A421DD103F560435E
:102040009A690F4842F480529A619A6902A902F48F
:1020500080520092009A9A6942F004029A619B6948
:10206000A02203F004030193019B0223CDE9022384
:102070000323059301F0DCFD06B010BD00300140E4
:102080000008014010B5044686B01022002102A8C5
:1020900002F0DCFF22680F4B9A4219D103F502339C
:1020A000DA690D4842F00402DA61DA6902A902F045
:1020B00004020092009A9A6942F008029A619B69B0
:1020C00003F008030193019BC023029301F0B0FDCC
:1020D00006B010BD00080040000C014070B5064677
:1020E00086B01022002102A802F0B0FF3268244B13
:1020F0009A4243D103F558439A69224842F48042F8
:102100009A619A6902A902F480420092009A9A693F
:10211000002542F004029A619B694FF4007203F0BB
:1021200004030193019B0223CDE9022303230593BA
:1021300001F07EFD4FF48063124802A9124CCDE9F4
:102140000235049501F074FD104B2046C4E90035BA
:102150008023C4E90555C4E90335A560E56101F0B4
:10216000FBFB08B1FFF7F6FE002225201146F463C1
:10217000666201F09DFB252001F0CCFB06B070BD2E
:10218000003801400008014064030020580002406C
:10219000FEE7FEE7FEE7FEE7FEE7704770477047A1
:1021A00001F0C8B9014801F0AFBC00BF64030020D2
:1021B000014802F02BBD00BF4804002001207047F9
:1021C00008B502F0F1FE162303604FF0FF3008BDA2
:1021D00008B502F0E9FE16230360FEE770B50D4670
:1021E00014460E46731B9C4201DC204670BDAFF3C3
:1021F000008006F8010BF5E770B50D4614460E4653
:10220000731B9C4201DC204670BD16F8010BAFF336
:102210000080F5E74FF0FF3070474FF40053002087
:102220004B60704701207047002070470B4A0346FF
:10223000116810B509B90A491160106809490A4CBA
:102240000344091B8B4206D902F0AEFE0C23036047
:102250004FF0FF3010BD1360FCE700BF40050020C9
:1022600070090020005000200004000070479A42CE
:1022700038BF8854704770472DE9F84F9946DDE91B
:102280000B470D9B15469A0706468B4622D02A46D9
:102290000A9901EB04081444A2421FD10D9B9B072D
:1022A00005D5A2EB0508474505EB08041FD82046D5
:1022B000BDE8F88F4B4659462020B04708F1010889
:1022C000B8450AEB0802F5D33A1BBC4288BF00228E
:1022D0002A44DDE7A046A5EB040AF1E702F1010A72
:1022E0004B46594618F8010DB0475246D4E74B46C5
:1022F000224659462020B04708F10108D3E72DE9CE
:10230000F047DDE90D7616F0020F9DF828E0DDE9D3
:102310000854DDE90BC81FD106F001094FB1B9F12E
:10232000000F06D0BEF1000F02D116F00C0F00D046
:10233000013F4FF0300A04E0202C04D005F804A03F
:102340000134A045F8D84FF0300AB9F1000F03D09E
:10235000BC4201D21F2C34D916F0100F1FD016F436
:10236000806F33D194B3444501D0BC422ED1B4F137
:1023700001082AD0BCF1100F33D1023C16F0200F17
:1023800031D11F2C15D84FF0780C05F804C001345A
:102390001F2C0ED84FF0300C05F804C001341F2C50
:1023A00007D8BEF1000F23D04FF02D0C05F804C064
:1023B0000134CDE90A76CDE90854BDE8F047FFF7CE
:1023C0005BBF05F804A00134BFE74446BCF1100F21
:1023D000D4D0BCF1020FDBD11F2CEAD84FF0620C35
:1023E000D3E74446F5E71F2CE3D84FF0580CCCE771
:1023F00016F0040F02D04FF02B0CD7E716F0080FA1
:10240000D7D04FF0200CD1E72DE9F04391B0189DC3
:102410001A9E1D9F0DB927F010077C0500D515B336
:1024200017F0200F14BF4FF0410E4FF0610EAC4675
:1024300000250DF12008AEF10A0EBCFBF6F906FBF3
:1024400019C95FFA89F4B9F1090F94BF30347444A3
:10245000E4B2B44508F8014B05F10105BCFBF6F404
:1024600001D3202D10D11C9C069705941B9CCDE90F
:1024700003649DF86440CDE9015408AC0094FFF773
:102480003EFF11B0BDE8F083A446D6E72DE9F04F3A
:1024900095B0269D9946DDE91E76DDE922AB57EA27
:1024A000060308BF25F010050A926A05CDE9080168
:1024B00002D557EA060338D015F0200F14BF412388
:1024C000612300240A3B0DF130080B9352465B4612
:1024D00038463146FEF748FBD2B2092A8ABF0B9B29
:1024E0003032D2185745D2B276EB0B0304F1010417
:1024F00008F8012B01D3202C14D1259B08980593B3
:10250000249B0695CDE903A3DDE909129DF88030EF
:10251000CDE901430CAB00934B46FFF7F0FE15B03D
:10252000BDE8F08F07460E46D0E70024E5E700003F
:102530002DE9F04F93B0CDE90932DDE91D8A1C9BEE
:102540008B4606931F9B069A0B93209B089007933C
:10255000104643464146FEF727FA80B14FF0FF325E
:102560004146104B0698FEF747FA40B94FF0FF324C
:102570006FF4801341460698FEF720FAA0B1079B3E
:10258000594620930B9B069ACDE91EA34346089813
:10259000CDE91C23DDE9093213B0BDE8F04F00F0AE
:1025A0009BB900BFFFFFEF7F002200234146069842
:1025B000FEF704FA002800F04281069C08F100456D
:1025C000079BC5F30A5013F48063A0F2FF3008BFE5
:1025D0004FF0060A0F93FDF715FFA9A3D3E90023D7
:1025E000FDF77AFFA8A3D3E90023FDF7BFFDC5F3EC
:1025F0001306CDE90C0146F07F510022B04B204676
:1026000041F44011FDF7B0FDA1A3D3E90023FDF78C
:1026100063FF02460B46DDE90C01FDF7A7FDFEF75F
:102620000BFA8146FDF7EEFE9BA3D3E90023064695
:102630000F46FDF751FF0022A24BFDF797FDFEF775
:10264000FBF997A3D3E9002339460E903046FDF7F6
:1026500043FF06460E980F46FDF7D4FE92A3D3E93A
:102660000023FDF739FF02460B4630463946FDF799
:102670007BFD02460B4606460F46FDF72DFF324610
:102680003B46CDE90C0130463946FDF76FFD00228F
:10269000CDE91001DDE90C018B4BFEF747F8002274
:1026A0008A4BFDF763FD02460B46DDE90C01FEF7A0
:1026B0003DF80022864BFDF759FD02460B46DDE949
:1026C0000C01FEF733F832463B46CDE90C01002001
:1026D0004FF08041FDF748FD02460B46DDE90C0155
:1026E000FDF744FD02460B46DDE91001FEF71EF83A
:1026F0000022784BFDF73AFD0E9B002203F2FF36D5
:102700003305FDF7E9FE22462B4606460F46FEF747
:1027100073F9002840F09780CDE90C6709F1630355
:10272000C72B079B34BF04260526190522D560A3B5
:10273000D3E9002320462946FEF754F9002800F08B
:102740008D805DA3D3E9002320462946FEF736F9A4
:10275000002800F083800026CA45CCBFAAEB090AF6
:102760004FF0000AB146079BC8BF0AF1FF3A43F495
:10277000806307930B9B9E4238BF9F1B079B28BF1C
:10278000002713F002030E9302D0002E18BF00277B
:10279000B9F1000F07D0DDE90C2320462946FDF7EB
:1027A000C5FF04460D460022002341460698FEF769
:1027B00005F910B105F100431D46079B224623F49D
:1027C0000063CDE903732B465946CDE90023DDE9CB
:1027D00009320898CDF808A000F07EF8024656B3FA
:1027E000079B441C13F0200F14BF45206520594659
:1027F000099B089DA8470523002205930A2389EA1F
:10280000E970CDE90232A0EBE9704FEAD973013EDD
:10281000224601930090099B594608980496FFF7B9
:10282000F3FD0E9B024633B10A9BC41A0A9B1A1988
:102830000B9BA3421BD8104613B0BDE8F08F069A3D
:1028400045461446BCE60022304639461F4BFDF78C
:102850006DFF09F1FF39CDE90C015FE7BAF1000F17
:1028600088D00F9B002B85D00AF1FF3A82E75946AA
:102870002020099B089DA8470134D7E7AFF30080CB
:10288000FB799F501344D33FB3C8608B288AC63F5F
:1028900061436F63A787D23F71A379094F930A40C1
:1028A0001655B5BBB16B0240EF39FAFE422EE63F3A
:1028B0002D431CEBE2361A3F0000000080842E41BD
:1028C0000000F83F0000E03F00002C4000002440E2
:1028D000000018400000F03F2DE9F04F97B0DDE90F
:1028E00020ABCDE90723DDE922530F46069005937F
:1028F00052465B4650465946249EFEF755F878B935
:10290000059B2396229303232193AF4B39460698C8
:102910002093DDE9072317B0BDE8F04FFFF7ACBC0B
:102920004FF0FF326FF4801350465946FEF746F8D9
:1029300030B1059B2396229304232193A34BE5E713
:102940004FF0FF3250465946A14BFEF755F870B193
:10295000A04A06F00403002B08BF03229E4B1CBFB5
:102960001346042205992396CDE92121CEE750464E
:1029700091A3D3E900235946FEF73EF838B990A356
:10298000D3E9002350465946FEF718F870B139468E
:10299000059B0698CDE92253DDE90723CDE920AB5D
:1029A000249617B0BDE8F04FFFF7C2BD0022002308
:1029B00050465946FEF702F800287ED05B46524644
:1029C00000200021FDF7D0FB012382468B460993AE
:1029D00016F4806F08BF06253021A9460EABA5F17D
:1029E0002002B9F1090FA5EB090406D909F1FF3955
:1029F0004A4503F8011BF4D1202459465046FEF7FE
:102A00001BF8764B054603EBC903D3E90023CDE958
:102A10000A23FDF7F7FC02460B4650465946FDF7E0
:102A2000A3FBDDE90A23FDF757FD02460B46CDE97E
:102A30000C23FEF729F88046FDF7D4FC02460B462E
:102A4000DDE90C01FDF790FB02460B46CDE90C23B6
:102A50000022634BFDF7D0FF88B308F10108404620
:102A6000FDF7C0FC02460B46DDE90A01FDF7B0FFA9
:102A700010B14FF000080135B9F1000F51D12846CF
:102A8000FDF7C0FC02460B4650465946FDF76CFB6D
:102A90000022534B80468946FDF790FF30B100225B
:102AA000404649464E4BFDF7A7FF10B1E80700D559
:102AB00001350EAB0A22234459E0099088E7002231
:102AC000DDE90C01464BFDF779FF0028D4D1B8F1C0
:102AD000000F02D018F0010FCED008F10108CBE7AB
:102AE000B8FBF1F001FB1082B8F1090F02F13002DE
:102AF00009F1FF3904F1010403F8012B27D8302133
:102B0000A1440EAA202C11D04C4504F1010320D180
:102B100004F158020DEB02042E2204F8202C1C466E
:102B2000C7E70A210EAB2344202CD9D106F00303BA
:102B3000012B0EAB33D1059A8AB3099A12B916F05C
:102B40000C0F02D0059A013A0592302214E080461B
:102B5000EAE7A1541C46D5E795FBF2F102FB1155BB
:102B6000303503F8015B01340D460029DED0202CFE
:102B7000F2D1DBE71A5501340599A1420FD9202C77
:102B8000F8D1059A0093CDE90142DDE907233946E2
:102B900006980396FFF770FB17B0BDE8F08F202C66
:102BA000EFD0099AF2B12D2104F158026A4402F8DB
:102BB000201C0134E5E700BF0000000065CDCD41D9
:102BC0000000000065CDCDC18399000887990008F9
:102BD000FFFFEF7F7E9900087A990008909900081E
:102BE0000000E03F710704D504F158022B216A442C
:102BF000DDE73207C5D504F1580220216A44D6E743
:102C00002DE9F04F91B00A93B94BB1F1000B90460A
:102C100014BF8146994600251A9E0A9B187870B900
:102C2000454538BF2A46434659464FF0000028BF65
:102C300008F1FF32C847284611B0BDE8F08F0A9B63
:102C4000252803F101030A9306D02A464346594634
:102C50006C1CC8472546E0E7002206E02D2B14D067
:102C6000302B0CD142F001020A900A9810F8013B77
:102C70002B2B0DD0F2D8202B0DD0232B0ED0A3F16F
:102C80003004092C28D8002710E042F00202EBE7BC
:102C900042F00402E8E742F00802E5E742F01002E1
:102CA000E2E70A2101FB07370A90303F0A9810F843
:102CB000013BA3F13004092CF3D90A9B1B782E2B7E
:102CC00067D10A9B42F48062581C5B78A3F1300400
:102CD000092C55D8002411E02A2B08D156F8047B82
:102CE0000A90002FBCBF42F002027F42E5E70027B6
:102CF000E3E70A21604601FB0434303C84461CF8BB
:102D0000013BA3F1300EBEF1090FF2D9034613F8CF
:102D100001CBBCF16C0F48D03ED8BCF1680F4DD050
:102D2000BCF16A0F55D0034613F8010B78280A93BB
:102D30008BD8572850D8452805D086D9462800F08A
:102D40002681472881D100F0DF03472B04BF00F024
:102D5000FD0042F40062452808BF42F02002CDE9A0
:102D60000372073626F007060294F6E80223594656
:102D7000CDE90023484643462A46FFF7D9FB18E130
:102D80002A2B07D156F8044B0A9824EAE47402303F
:102D9000BCE70A980024B9E7BCF1740F02D0BCF17B
:102DA0007A0FC0D142F48072BEE790F801C0BCF146
:102DB0006C0FF7D142F44072831CB5E790F801C064
:102DC000BCF1680F02D042F08002ADE742F0C002D1
:102DD000F2E742F40072A7E7A0F15803202B3FF678
:102DE00034AF01A151F823F06D2E00084B2C0008E0
:102DF0004B2C00084B2C00084B2C00084B2C0008D7
:102E00004B2C00084B2C00084B2C00084B2C0008C6
:102E10006D2E0008B72F00086D2E0008472D000802
:102E2000932F0008472D00084B2C00086D2E00083A
:102E30004B2C00084B2C00084B2C00084B2C000896
:102E40004B2C00086D2E0008F53000084B2C0008B4
:102E50004B2C0008313000084B2C00086D2E000868
:102E60004B2C00084B2C00086D2E0008782800F031
:102E70005781582800F052816F2800F05381622852
:102E800000F0528169284FF00A0322F0100203D0AB
:102E9000642801D022F00C02510548BF22F0010243
:102EA000692802F4007101D064283ED111B30736BD
:102EB00026F00706B24676685AF8080B04930023FA
:102EC0000593F30F002E0293CDE907720346069493
:102ED00002DA434266EB4606CDE9003643462A460F
:102EE00059464846FFF7D2FA0546564695E600BFD2
:102EF00077220008D10506F1040A0CD53068CDE927
:102F00000472CDE9023400284FEAD0730193B8BFB0
:102F10004042009024E012F0400F306801D0C0B26F
:102F2000EDE7160648BF00B2E9E771B1CDE90772D7
:102F30000022CDE90432073626F0070A06940292F1
:102F4000FAE80223CDE90023C8E7D00506F1040A18
:102F50000DD5CDE90472CDE90234019133680093B7
:102F600043462A4659464846FFF74EFABCE712F058
:102F7000400F306807D0C0B2CDE902340023CDE95C
:102F800004720193C5E7110648BF80B2F4E742F02E
:102F90002002CDE90372073626F007060294F6E810
:102FA00002235946CDE90023484643462A46FFF707
:102FB00093FC054631E612F0020424D04FF0010ADA
:102FC00056F8040B6B1C0B932A4643465946C0B275
:102FD000C8475CB354460B9A1EE04346594620202E
:102FE000C8470AEB05020AF1010A5745F5D8002F38
:102FF00007F1FF3308BF002307F1010A1D4408BF92
:103000004FF0020ADCE7A246EBE7551C434659465F
:103010002020C8472A460134BC42F6D3A7EB0A0356
:10302000574538BF00230B9A1A440B920B9DF4E5C9
:10303000334653F8046B002C0B9314BF23464FF018
:10304000FF3331463344087808B1994211D112F464
:103050008063A1EB060A0C9302D0A24528BFA246CA
:1030600012F002030D931BD1AAEB05032A460F931E
:1030700008E00131E7E7531C0E93594643462020F0
:10308000C8470E9A0F9BD3189F42F4D8A7EB0A03A8
:10309000574538BF00230AF101021D4403EB020A21
:1030A000AB1B0E9304E01C4643462A465946C847CC
:1030B0000E9B9D1916F8010B28B10C9B002BF3D029
:1030C000631E002CEFD10D9B93B12A46AAEB050499
:1030D00005E0561C434659462020C847324613197E
:1030E000BB42F6D3A7EB0A03574538BF00231D4464
:1030F0000B9E92E5082342F02102CDE9034305929D
:1031000000231022CDE9013256F8043B2A460093F1
:10311000594643464846FFF777F94AE742F020020E
:103120001023B7E60823B5E60223B3E60CB41FB5B7
:1031300006AC54F8043B0A46009401460448039444
:10314000FFF75EFD04B0BDE8104002B0704700BF5D
:103150006F22000810B50C4C01222046022100F01D
:1031600047FE00220121204600F042FE0A2000F026
:10317000F3F901222046114600F03AFEBDE8104066
:103180000A2000F0E9B900BF000C014013B50E4C55
:103190008DF8070000222046022100F029FE0022BF
:1031A00040210A4800F024FE4FF0FF330DF10701E3
:1031B0000122074801F05CF901220221204600F0BB
:1031C00017FE02B010BD00BF000C01400008014016
:1031D000A803002070B504460D460C4E0022304670
:1031E000022100F005FE01224021094800F000FE06
:1031F0002146AAB24FF0FF33064801F039F93046B4
:10320000BDE870400122022100F0F2BD000C014037
:1032100000080140A803002000230649021E18BF31
:10322000012201335242B3F5826F01F8012BF5D12F
:10323000704700BF4A05002038B5B0240A4D20462B
:10324000FFF7A4FF0020FFF7A1FF01341020FFF7D4
:103250009DFFE4B228468221FFF7BCFFB82C05F1A0
:103260008205ECD138BD00BF4A050020812830B569
:1032700012D83F2910D88224CB0804FB0300012474
:10328000064D01F007012B5604FA01F149B2A242A2
:103290000CBF0B438B432B5430BD00BF4A050020AD
:1032A0002DE9F04F054687B0A5F120040193E3B264
:1032B00006A85E2B00E9060041D8DFF888A09DF83B
:1032C00010B0BAF8006006EB0B03822B37DCBAF8BB
:1032D00002309DF81190009303EB0902402A2EDC86
:1032E0004FF0000809FB04F46400C14506D85E44B1
:1032F000AAF80060284607B0BDE8F08F0027059ABD
:10330000135B0293009B08EB0301C9B2BB4503D8D2
:1033100008F101080234E8E7029BB81903FA07F242
:10332000130456BF019B019AB3FA83F2C0B258BF8F
:10333000520903910137FFF799FF0399E6E700254A
:10334000D8E700BF4405002073B56D461E4685E8EA
:103350000600441E14F8010F40B195E806003346FC
:10336000FFF79EFF034620788342F3D002B070BD82
:10337000014B1880598070474405002010B5044661
:103380008120FFF703FF2046BDE81040FFF7FEBE97
:103390000246002803460CBF13460123034A14BF0C
:1033A000AF20AE205371FFF7F1BE00BF44050020EF
:1033B00008B5FFF7CFFE642000F0CEF80020FFF73D
:1033C000E7FF2020FFF7E2FE0020FFF7DFFEB0203E
:1033D000FFF7DCFEC820FFF7D9FE0020FFF7D6FE7E
:1033E0001020FFF7D3FE4020FFF7D0FEFF20FFF7AD
:1033F000C5FFA120FFF7CAFEA620FFF7C7FEA82041
:10340000FFF7C4FE3F20FFF7C1FEA420FFF7BEFE7A
:10341000D320FFF7BBFE0020FFF7B8FED520FFF753
:10342000B5FEF020FFF7B2FED920FFF7AFFE222055
:10343000FFF7ACFEDA20FFF7A9FE1220FFF7A6FE89
:10344000DB20FFF7A3FE2020FFF7A0FE8D20FFF773
:103450009DFE1420FFF79AFE0120FFF799FF002040
:10346000FFF7DAFEFFF7E8FE0022034B1A805A80CE
:1034700001221A7108BD00BF44050020FEF7F6FEC8
:103480000B480C490C4A002302E0D458C4500433C2
:10349000C4188C42F9D3094A094C002301E0136097
:1034A0000432A242FBD301F085FDFEF7D7FB704743
:1034B000000000202402002074DE00082402002006
:1034C00070090020FEE7000038B50E4B054618785D
:1034D0004FF47A73B3FBF0F30B4A1068B0FBF3F0D0
:1034E00000F026FA044658B90F2D09D8024629469D
:1034F0004FF0FF3000F0DCF92046044B1D6038BD72
:103500000120FCE7480000201C0000204C000020A7
:10351000074A08B51368032043F01003136000F056
:10352000B5F90F20FFF7D0FFFEF716FD002008BD0C
:1035300000200240034A044B11681B780B441360BF
:10354000704700BF5C09002048000020014B18684C
:10355000704700BF5C09002038B50446FFF7F6FF4E
:103560000546631C1EBF044B1B78E418FFF7EEFFF3
:10357000431BA342FAD338BD4800002038B50446A7
:1035800000286ED090F820300BB9FEF707FD2268B6
:10359000136843F001031360FFF7D8FF0546236863
:1035A0005A68D10751D51A6822F002021A60FFF753
:1035B000CDFF054623685A68920754D4227E002026
:1035C000012A1A680CBF42F0800222F080021A60C1
:1035D000627E012A1A680CBF42F0400222F04002CB
:1035E0001A60A27E012A1A680CBF42F0200222F063
:1035F00020021A60E27E012A1A680CBF22F0100233
:1036000042F010021A60227F012A1A680CBF42F0B1
:10361000080222F008021A60627F012A1A680CBFB1
:1036200042F0040222F004021A60D4E902210A43A3
:1036300021690A4361690A43616801390A43DA6111
:103640000123606284F8203038BDFFF77FFF401B04
:103650000A28A4D9636A43F400336362052384F81B
:1036600020300120F0E7FFF771FF401B0A28A1D9A5
:10367000F0E770B590F82030013B012B62D80124AF
:103680000368D3F8002242F00102C3F800224A691D
:10369000D3F81C5202F01F0004FA00F025EA0005DE
:1036A000C3F81C52CD69C44385BBD3F80C52CE6815
:1036B0002540C3F80C528D8803EBC20245EA06454B
:1036C000C2F840528E680D8845EA0645C2F8445259
:1036D0008A696ABBD3F804222240C3F804220A692B
:1036E00052BBD3F814221440C3F814420A6A012AC8
:1036F00002BFD3F81C221043C3F81C020020D3F8E9
:10370000002222F00102C3F8002270BD012DDFD19A
:10371000D3F80C520E680543C3F80C528D8803EBA6
:10372000C20245EA0645C2F840528E688D89CBE751
:10373000D3F804220243D0E7D3F814220243C3F89B
:103740001422D3E7436A43F4802343620120DCE779
:1037500070B590F820300446012BDDB220D1022351
:10376000026880F82030136823F001031360FFF72C
:10377000EDFE064623685B6813F0010302D11D4687
:1037800063620BE0FFF7E2FE801B0A28F2D9636A4E
:1037900043F400336362052384F82030284670BD6B
:1037A000436A012543F400234362F7E7F0B5054679
:1037B00090F820002E6801380128B4683AD814F037
:1037C000E05F4FF0010030D0C4F30164A040186006
:1037D000D1E9020704F1180310BB086847EA40501A
:1037E0001B01F050200106EB0413064400200D6974
:1037F000C3F88451097D012902BFD3F8841141F433
:103800008071C3F884115168C6F88C111268C6F82B
:103810008821D3F8802142F00102C3F88021F0BD55
:103820004D68384340EAC500DAE76B6A43F4001399
:103830006B62F4E76B6A012043F480236B62EEE76E
:1038400090F82030013B012B0CD8036898689A68E7
:103850009B681201C0F3806048BF0130DB0002D5D5
:10386000013070470020704790F82030013B012B59
:1038700005D8026800205369194351617047436AB3
:1038800043F480234362012070470000074903028C
:10389000CA6803F4E06322F4E0621204120C1343DA
:1038A00043F0BF6343F40033CB60704700ED00E0AA
:1038B000164B30B5DC68C4F30224C4F10703251DA0
:1038C000042B28BF0423062D4FF0FF3598BF00249A
:1038D00005FA03F388BF033C21EA0303A34005FA7A
:1038E00004F422EA0402002843EA0203ACBF00F118
:1038F0006040074A4FEA0313DBB2ABBF00F56140FB
:1039000000F00F0080F80033135430BD00ED00E0EC
:1039100014ED00E0002808DB0123420900F01F003D
:1039200003FA00F0014B43F82200704700E100E089
:103930000138B0F1807F0BD24FF0E023F021054A2F
:10394000586182F823100020072298611A6170479D
:103950000120704700ED00E010B548B31422016863
:10396000144B0B44B3FBF2F39B000364124BC36391
:10397000022380F82130D0E901342343C4680A6867
:103980002343046922F47F522343446922F0300226
:10399000234384692343C469234313430B600122F7
:1039A0000023836380F8203080F82120184610BD62
:1039B0000120FCE7F8FFFDBF00000240F0B590F8E1
:1039C0002040012C34D0012480F8204090F8214080
:1039D0000026012CE5B24FF0020427D180F82140E7
:1039E00004688663266826F001062660D0E90F6722
:1039F000BD40756063604368102BC36A0BBFA26053
:103A0000A160E160E2604BB1236843F00E03002047
:103A10002360236843F001032360F0BD236823F093
:103A200004032360236843F00A03F0E780F8206072
:103A30000220F2E790F82130022B06D004238363A2
:103A4000002380F82030012070470368C16B1A689A
:103A500022F00E021A601A6822F001021A60012296
:103A6000036C02FA03F34B60002380F8212080F8F6
:103A7000203018467047000010B590F82130022B16
:103A800003D004238363012010BD03681A6822F069
:103A90000E021A601A6822F001021A60184A934254
:103AA0001FD0143293421ED0143293421DD01432D0
:103AB00093421DD0143293421DD0143293420CBF56
:103AC0004FF480134FF080730E4A0024536001239B
:103AD00080F82130436B80F820407BB19847204626
:103AE000D2E70123F0E71023EEE74FF48073EBE712
:103AF0004FF48053E8E74FF48033E5E71846C3E717
:103B0000080002400000024070B40425C66B026C3D
:103B10003468036895402542196832D04D0730D586
:103B20001A6896065EBF1A6822F004021A603E4ABE
:103B3000934219D01432934218D01432934217D0C2
:103B40001432934217D01432934217D01432934256
:103B50000CBF4FF480034FF08063344A5360C36A54
:103B6000002B5ED070BC18470423F6E74023F4E72F
:103B70004FF48063F1E74FF48043EEE74FF4802386
:103B8000EBE702259540254235D08D0733D51A68DD
:103B9000940606D41A6822F00A021A60012280F8FC
:103BA0002120214A934219D01432934218D0143262
:103BB000934217D01432934217D01432934217D045
:103BC000143293420CBF4FF400134FF00073174AA6
:103BD0005360002380F82030836AC1E70223F6E7B0
:103BE0002023F4E74FF40073F1E74FF40053EEE7BE
:103BF0004FF40033EBE708259540254211D0090723
:103C00000FD5196821F00E011960012303FA02F2A1
:103C10007260836380F82130002380F82030036BCA
:103C20009EE770BC704700BF0800024000000240E1
:103C30002DE9F74F00221646644F654BDFF894C11B
:103C4000DFF894E10D6835FA06F402D103B0BDE85F
:103C5000F08F4FF0010808FA06F805EA080438EA80
:103C600005057BD14D68032D07D8013D022D00F2DB
:103C70008880DFE805F0969BA100122D00F0998066
:103C80006ED8112D00F08F80FF2C98BF82464FF028
:103C90000F0988BF00F1040A4FEA8605DAF80080B0
:103CA00088BF203D09FA05FB28EA0B0802FA05F552
:103CB00048EA0505CAF80050D1F804A01AF0805F60
:103CC0004CD0BD6926F0030845F00105BD61BD6912
:103CD00008F1804805F00105019508F5803806F0E7
:103CE000030B019D4FEA8B0BD8F8085009FA0BF92A
:103CF00025EA0909394DA84262D005F58065A84238
:103D000060D005F58065A8425ED005F58065A842C3
:103D10000CBF0325042505FA0BF545EA0905C8F88B
:103D200008509D681AF4801F14BF2543A5439D6069
:103D3000DD681AF4001F14BF2543A543DD605D68EC
:103D40001AF4003F14BF2543A5435D601D681AF4B3
:103D5000803F14BF2C4325EA04041C60013671E740
:103D6000DFF87C904D450CD017D8A9F580194D454A
:103D700007D009F570294D4503D0A9F580194D45A7
:103D800082D18A68D2B1012A08BFC0F810804FF0F2
:103D9000080218BFC0F8148076E76545F1D0754574
:103DA000EEE7CA6870E7CA6804326DE7CA6808328D
:103DB0006AE7CA680C3267E7002265E7042263E716
:103DC0000025A8E70125A6E70225A4E70010024088
:103DD00000040140000031100000321000080140D2
:103DE000000022108368194214BF01200020704790
:103DF0000AB1016170470904FBE700002DE9F341B6
:103E0000054638B30368DB0710D42B689F075ED4E0
:103E10002B68190700F195802B685A0700F1C180C3
:103E2000E869002840F02C81002029E0904C63686C
:103E300003F00C03042B07D0636803F00C03082B7A
:103E40000AD16368DE0307D523689C03DDD56B6860
:103E5000002BDAD1012013E06B68B3F5803F12D15B
:103E6000236843F480332360FFF770FB0646236822
:103E70009803CAD4FFF76AFB801B6428F7D9032094
:103E800002B0BDE8F0819BB9236823F4803323603E
:103E9000236823F480232360FFF758FB064623683A
:103EA0009903B2D5FFF752FB801B6428F7D9E6E7E8
:103EB000B3F5A02F236803D143F480232360CFE719
:103EC00023F480332360236823F48023CBE7684CFA
:103ED000636813F00C0F07D0636803F00C03082B22
:103EE00010D16368DA030DD423689B0702D52B69D0
:103EF000012BAFD123686A6923F0F80343EAC203B8
:103F0000236085E72A695B4B6AB101221A60FFF7DB
:103F10001DFB064623689F07ECD4FFF717FB801BA9
:103F20000228F7D9ABE71A60FFF710FB06462368B3
:103F300098077FF56DAFFFF709FB801B0228F6D9C4
:103F40009DE7AA694A4E4B4BE2B10122C3F8802497
:103F5000FFF7FCFA0446736A9B070DD54FF4FA523B
:103F6000454B1B68B3FBF2F3019300BF019B5A1E44
:103F70000192002BF9D14FE7FFF7E8FA001B022866
:103F8000E9D97CE7C3F88024FFF7E0FA0446736AB6
:103F90009F077FF541AFFFF7D9FA001B0228F6D93A
:103FA0006DE7334CE369D80024D40127E36943F07B
:103FB0008053E361E36903F080530093009B2F4E2D
:103FC0003368D90518D5EB68012B26D1236A43F055
:103FD00001032362FFF7BAFA41F288380646236AE2
:103FE0009B073FD5002F3FF41BAFE36923F08053BD
:103FF000E36115E70027E2E7336843F48073336039
:10400000FFF7A4FA80463368DA05DCD4FFF79EFA9E
:10401000A0EB08006428F6D931E7ABB9236A41F276
:10402000883823F001032362236A23F00403236208
:10403000FFF78CFA0646236A9807D3D5FFF786FA6E
:10404000801B4045F7D91AE7052B236A03D143F0BB
:1040500004032362BAE723F001032362236A23F0F7
:104060000403B6E7FFF772FA801B4045B7D906E7AD
:1040700000100240000042421C000020007000407E
:104080002A4C636803F00C03082B3ED00022284B17
:1040900002281A662CD1FFF759FA064623689901BF
:1040A00020D42B6AB3F5803F05D16268A96822F459
:1040B00000320A436260696A62680B4322F4741238
:1040C0001343012263601A4B1A66FFF73FFA054655
:1040D00023689A013FF5A8AEFFF738FA401B022883
:1040E000F6D9CCE6FFF732FA801B0228D6D9C6E60D
:1040F000FFF72CFA054623689B017FF595AEFFF785
:1041000025FA401B0228F6D9B9E601283FF4B8AEDB
:1041100063682A6A03F4803191427FF49BAE6A6A35
:1041200003F4701393423FF47FAE93E60010024015
:10413000000042420D4A536803F00C01082912D1D5
:104140000B48C3F38341DB03405C09D55368094A3C
:10415000C3F340435043084AD35CB0FBF3F07047CD
:10416000064B584370470348704700BF0010024099
:10417000B4D9000800127A00C4D9000800093D0033
:104180002DE9F0410D46044610B90120BDE8F0814B
:10419000444A136803F007038B4228D321688E0733
:1041A00030D4CA0743D43F4A136803F00703AB4235
:1041B00065D822683C4D12F0040F6CD1130706D568
:1041C0006B68226923F4605343EAC2036B60FFF714
:1041D000B1FF6B68354AC3F30313D35CD840344B4B
:1041E0001860344B1868FFF76FF90020CEE71368AA
:1041F00023F007030B431360136803F007038B429C
:10420000C3D1CBE7284B11F0040F1EBF5A6842F40C
:10421000E0625A60080742BF5A6842F460525A602E
:104220005A68A06822F0F00202435A60B9E7626857
:104230001D4E012A33681AD113F4003FA5D07368CC
:1042400041F2883823F0030313437360FFF77EF9CC
:1042500007467368626803F00C03B3EB820FA2D0C9
:10426000FFF774F9C01B4045F3D903208EE7022AFB
:1042700002D113F0007FE1E713F0020FDEE71368CD
:1042800023F007032B431360136803F00703AB42CB
:104290007FF47BAF8DE76B68E16823F4E0630B4349
:1042A0006B608BE70020024000100240629900081A
:1042B0001C0000204C000020044B054A5B68C3F33F
:1042C0000223D35C034A1068D840704700100240B4
:1042D000729900081C000020044B054A5B68C3F378
:1042E000C223D35C034A1068D840704700100240D4
:1042F000729900081C0000202DE9F3411C46164667
:104300000F460546FFF722F93444241AFFF71EF939
:104310008046234B1B68C3F3CB3363432A68019366
:10432000936837EA030301D000202EE0731CF7D016
:10433000FFF70CF9A0EB0800A04229D32B685A68BC
:1043400022F0E0025A606A68B2F5827F0AD1AA6858
:10435000B2F5004F02D0B2F5806F03D11A6822F097
:1043600040021A60AA6AB2F5005F07D11A6822F407
:1043700000521A601A6842F400521A60012385F84C
:1043800051300023032085F8503002B0BDE8F081A1
:10439000019B002B019B08BF0024013BBEE700BF2F
:1043A0001C00002010B513460A4680210446FFF782
:1043B000A3FF20B10320636D43F02003636510BDAC
:1043C00010B50446002851D0436A002B4AD14268F8
:1043D000B2F5827F00D0C3610023A36294F851300C
:1043E00003F0FF0223B9204684F85020FDF71AFE9F
:1043F0000223226884F851301368A06823F0400338
:104400001360636800F4044003F482730343E068BC
:10441000A16900F400600343206900F00200034337
:10442000606900F00100034301F400700343E06998
:10443000090C00F038000343206A01F0040100F089
:1044400080000343A06A00F40050034313605160EE
:10445000D369002023F40063D3610123606584F8ED
:10446000513010BD0023C0E90433B5E70120F8E75F
:104470002DE9F7431E4690F850300446012B0D46B7
:10448000174600F0A680012380F85030FFF75EF851
:1044900094F851308146012B5FFA83F840F0968002
:1044A000002D63D0002F61D0032384F85130002306
:1044B000A2686365B2F5004FC4E91033E786A363D1
:1044C000A387E38725632368A78607D11A6822F0AC
:1044D00040021A601A6842F480421A601A686168E1
:1044E00052065EBF1A6842F040021A60E268B2F5F6
:1044F000006F45D109B1012F07D135F8022BDA60E1
:104500002563E38E013B9BB2E386E38E9BB2B3B996
:104510004A4631462046FFF745FF002853D1A3689D
:1045200033B901932368DA6801929B680193019B78
:10453000636DDBB90122984684F8512016E02268A9
:104540009368980705D5236B33F8021BD16023636A
:10455000D7E7FEF7FBFFA0EB0900B0420DD3711CBB
:10456000D3D001234FF0030884F85130002384F89E
:104570005030404603B0BDE8F083002EC5D1F0E7CF
:1045800009B1012F08D12A781A73236B01332363F1
:10459000E38E013B9BB2E386E38E9BB2002BB7D048
:1045A00023689A68920702D5226B1278ECE7FEF72F
:1045B000CDFFA0EB0900B04202D3731CECD0D0E7D2
:1045C000002EE9D1CDE720236365A8E74FF002086C
:1045D000CCE74FF00208CCE7034630B590F83E2018
:1045E00090F83F0093F8425093F84340D2B2C0B2E3
:1045F000EDB2E4B2C1B9012A45D1012D45D1022263
:1046000083F83E2083F842201A68116A21F00101E4
:104610001162116A41F00101002011621A681368E9
:1046200043F00103136030BD042911D101282AD1C0
:10463000012CF8D1022283F83F2083F843201A6826
:10464000116A21F010011162116A41F01001E3E7D3
:10465000012A18D1012818D1012DE4D1012CE2D171
:10466000022283F83E2083F83F2083F8422083F81B
:1046700043201A68116A21F001011162116A41F0A8
:1046800001011162DCE70120CDE71046CBE7000015
:104690001A4A036890420AD0B0F1804F07D0A2F5C1
:1046A0009432904203D002F58062904215D14A685C
:1046B00023F070031343114A90420AD0B0F1804FA7
:1046C00007D0A2F59432904203D002F58062904266
:1046D00003D1CA6823F4407313434A6923F080036B
:1046E000134303608B68C3620B688362034B984279
:1046F00004BF0B690363012343617047002C014031
:10470000F8B50D46044600284DD090F83D3003F032
:10471000FF021BB980F83C20FDF7B4FC02232146C0
:1047200084F83D3051F8040B836823F4804323F070
:1047300007038360FFF7ACFF20682A6886688369F7
:10474000A9681643AA6923F4407341EA022123F0C1
:1047500003030B4323F47C422B69E9691B0143EA01
:104760000123E968076A0B43296A22F0FC0243EA45
:1047700001331343696927F022026F68866047EAB4
:1047800001178361174301230762002084F8463034
:1047900084F83E3084F83F3084F8423084F8433067
:1047A00084F83D30F8BD0120FCE7000030B590F8FA
:1047B0003C300246012B4FF0020022D0136882F8F1
:1047C0003D005C680D6824F070042C4398685C60C0
:1047D0000C4CA3420AD0B3F1804F07D0A4F5943417
:1047E000A34203D004F58064A34204D1496820F0B9
:1047F0008000014399600123002082F83D3082F857
:104800003C0030BD002C0140026802F10C0353E86B
:10481000003F23F490730C3242E800310268002913
:10482000F2D102F1140353E8003F23F0010302F137
:10483000140C4CE800310029F3D1036B012B0BD190
:1048400002F10C0353E8003F23F0100302F10C0CBB
:104850004CE800310029F3D1202380F842300023B6
:104860000363704710B504460368C1681A6922F4EF
:1048700040520A431A6182680069D968024360693C
:1048800021F4B05121F00C0102430A43DA605A6965
:10489000A16922F440720A435A610E4A934215D12B
:1048A000FFF71AFD19234343626820689200B3FBA7
:1048B000F2F36422B3FBF2F102FB11331B0132333A
:1048C000B3FBF2F303EB0113836010BDFFF7F4FCBD
:1048D000E8E700BF00380140F8B504460E46174629
:1048E0001D462268136836EA030301D1002028E040
:1048F0006B1CF7D025B1FEF729FEC01B8542F0D214
:10490000226802F10C0353E8003F23F4D0730C3209
:1049100042E8003021680028F2D101F1140353E885
:10492000003F23F0010301F1140040E80032002AA7
:10493000F3D12023032084F8413084F8402084F808
:104940004230F8BD10B5044648B390F8413003F04A
:10495000FF021BB980F84020FDF7C0FB242322682A
:1049600084F84130D368204623F40053D360FFF726
:1049700079FF236800201A6922F490421A615A696B
:1049800022F02A025A61DA6842F40052DA602023E7
:10499000606484F8413084F84230606310BD0120C7
:1049A000FCE72DE9F843994690F841300446202B66
:1049B0000E4617463CD100293CD0002A3AD021238C
:1049C0000025456480F84130FEF7C0FDA3688046AD
:1049D000B3F5805FA784E78403D123690BB935461B
:1049E0001E46E38C9BB253B94B46424640212046BB
:1049F000FFF772FF50B9202384F8413007E04B469F
:104A0000424680212046FFF767FF10B10320BDE832
:104A1000F88322684EB935F8023BC3F308035360AC
:104A2000E18C013989B2E184DBE716F8013BF6E756
:104A30000220ECE70120EAE770477047704708B5AD
:104A4000406A03685A6990F84110212912D1120670
:104A500010D50022C28403F10C0252E8002F22F08C
:104A6000C00203F10C0C4CE800210029F3D12022F4
:104A700080F841205B6990F84220222A05D15B062C
:104A800003D50023C385FFF7BFFE436C43F010033B
:104A90004364FCF725FA08BD08B50023406AC385C6
:104AA000C384FCF71DFA08BD08B50123406A4363BF
:104AB000036B012B04D1818D4908FCF765FA08BD11
:104AC000FFF7BCFFFBE708B503461B68406A1B689D
:104AD00013F0200337D1C385026802F10C0353E8B9
:104AE000003F23F480730C3242E800310368002950
:104AF000F2D103F1140252E8002F22F0010203F177
:104B0000140C4CE800210029F3D103F1140252E8FF
:104B1000002F22F0400203F1140C4CE80021002980
:104B2000F3D1202280F84220026B012A0BD103F13D
:104B30000C0252E8002F22F0100203F10C0C4CE89A
:104B400000210029F3D100234363036B012B03D120
:104B5000818DFCF719FA08BDFFF76FFFFBE707B57A
:104B60008168836AB1F5805F02683FD101690029DD
:104B70003FD15268C2F3080223F8022B8362C38D2F
:104B8000013B9BB2C385002B2DD10268D16821F077
:104B90002001D160D16821F48071D160516921F088
:104BA00001015161202280F842204363026B012AF7
:104BB000026828D1036302F10C0353E8003F23F09D
:104BC000100302F10C0C4CE800310029F3D11368FA
:104BD000DB0605D501911368019353680193019B8E
:104BE000818DFCF7D1F903B05DF804FB39B9016997
:104BF00029B95268D2B21A70836A0133BEE752688B
:104C000002F07F02F7E7FFF718FFECE7036837B51C
:104C10001A68044612F00F0FD9685D690CD1950629
:104C200070D58D066ED590F84230222B64D103B03A
:104C3000BDE83040FFF793BF05F0010001F4907527
:104C400005435FD0D50705D5CB0542BF636C43F064
:104C500001036364550704D518B1636C43F0020384
:104C60006364930704D518B1636C43F00403636471
:104C7000150707D501F0200303431EBF636C43F003
:104C800008036364636C002B36D0900608D58A064F
:104C900006D594F84230222B02D12046FFF75FFF61
:104CA000236820465B69656C03F0400305F0080546
:104CB0001D4323D0FFF7A8FD226853695B0618D572
:104CC00002F1140353E8003F23F0400302F1140003
:104CD00040E800310029F3D1E06B50B1734B4363DE
:104CE000FEF7CAFE40B1E06B436B03B0BDE8304055
:104CF00018472046FCF7F4F803B030BDFCF7F0F895
:104D00006564F9E7206B012840F09480D50640F1F6
:104D10009180C80640F18E80002201921A680192AB
:104D20005A680192019A5A6955064DD5E16B0A6895
:104D3000526892B2002ADFD0A08D9042DCD9E28581
:104D40008A69202A36D003F10C0252E8002F22F49F
:104D5000807203F10C0040E800210029F3D103F137
:104D6000140252E8002F22F0010203F1140040E87F
:104D700000210029F3D103F1140252E8002F22F0A0
:104D8000400203F1140040E800210029F3D1202261
:104D900084F84220216303F10C0252E8002F22F034
:104DA000100203F10C0040E800210029F3D1E06B70
:104DB000FEF740FE02236363E38DA18DC91A89B219
:104DC0002046FCF7E1F897E7E18D8AB2E18D89B2E0
:104DD000002991D0A18D891A89B200298CD003F1C4
:104DE0000C0252E8002F22F4907203F10C0545E802
:104DF00000200028F3D103F1140252E8002F22F022
:104E0000010203F1140545E800200028F3D1202217
:104E100084F84220206303F10C0252E8002F22F0B4
:104E2000100203F10C0545E800200028F3D102230D
:104E30006363C5E7100628D50D0626D594F84120F2
:104E4000212A7FF459AFA168226AB1F5805F17D19A
:104E50002169A9B932F8021BC1F308015960226225
:104E6000E28C013A92B2E284002A7FF445AFDA681C
:104E700022F08002DA60DA6842F04002DA603BE752
:104E8000511C216212785A60EAE750067FF534AF70
:104E90004A067FF531AFDA68204622F04002DA6038
:104EA000202384F84130FFF7C7FD25E7994A000821
:104EB000406C704773B51346828500252222044654
:104EC0008162456480F84220C06B1D4A2668826278
:104ED0001C4AC2621C4AC0E90C250A46311DFEF775
:104EE0006DFD236801951A6801925A680192019A32
:104EF00022695AB103F10C0252E8002F42F4807289
:104F000003F10C0040E800210029F3D103F1140261
:104F100052E8002F42F0010203F1140040E80021A2
:104F20000029F3D103F1140252E8002F42F04002AD
:104F300003F1140141E800200028F3D102B070BD54
:104F4000C74A0008A94A00083F4A000873B590F80C
:104F500042600446202E24D111B9012002B070BD58
:104F6000002AFAD00123036300234363FFF7A2FF63
:104F70000028F3D1236B012BEFD122680190136835
:104F8000019353680193019B02F10C0353E8003F26
:104F900043F0100302F10C0444E800310029F3D17E
:104FA000DCE70220DAE70000014B1868704700BF19
:104FB0005000002070B500260C4D0D4C641BA41051
:104FC000A64209D104F052FC00260A4D0A4C641B8B
:104FD000A410A64205D170BD55F8043B9847013690
:104FE000EEE755F8043B98470136F2E76CDE00081F
:104FF0006CDE00086CDE000870DE00080A44914296
:1050000000F1FF3300D1704710B511F8014B914208
:1050100003F8014FF9D110BD884210B501EB02042D
:1050200002D98442234607D8431EA14208D011F872
:10503000012B03F8012FF8E7014602448A4200D110
:1050400010BD13F8014D02F8014DF7E70346024485
:10505000934200D1704703F8011BF9E7002B2DE9BB
:10506000F0471F46BBBF03F100431F4600232D231B
:1050700088B01446129A109D1370149BDDF84CA052
:1050800023F02008B8F1460F05D0B8F1450F00D144
:105090000135022300E0032307AA049206AACDE902
:1050A00002A2CDE9003522463B4601F085FDB8F16C
:1050B000470F064602D1119BDB0722D5B8F1460FF8
:1050C00006EB050910D13378302B0AD100220023DA
:1050D00020463946FBF768FC18B9C5F10105CAF846
:1050E0000050DAF800309944002200232046394667
:1050F000FBF75AFC08B1CDF81C903022079B4B45BA
:1051000007D33046079B159A9B1B136008B0BDE878
:10511000F087591C07911A70F0E70346F7B500298C
:1051200003F8022BB6BF2D222B22494209294270D7
:105130002BDD0DF10704A4460A2791FBF7F60A467A
:10514000A64607FB1615632A05F13005314604F122
:10515000FF340EF8015CF0DC3031AEF1020504F8EA
:10516000011C2946441C61450AD30DF10902A2EB3A
:105170000E02654588BF00221344181A03B0F0BD23
:1051800011F8012B04F8012FEDE730233031837043
:10519000C170031DF1E700002DE9F04F91B00C46FE
:1051A000DDF8688016461F46054602F059FE036882
:1051B00018460993FAF7CCFF00230E93D8F8003075
:1051C0000A90073323F0070303F1080294F81890BC
:1051D000D4F800B0C8F80020D3E90023C4E91223B2
:1051E000D4E9128A2AF000430B934FF0FF32404675
:1051F0009C4B0B99FBF70AFC70BB4FF0FF3240460B
:10520000984B0B99FBF7E4FB30BB00220023404690
:105210005146FBF7D3FB10B12D2384F84330924B5A
:105220009248B9F1470F94BF9846804603234FF048
:10523000000A23612BF004032360334621462846ED
:1052400000970FAA00F0D4F9013040F090804FF0A1
:10525000FF3011B0BDE8F08F4246534640465146FC
:10526000FBF7D4FB48B1BAF1000FB8BF2D2380483B
:10527000B8BF84F843307F4BD3E7636809F0DF01A0
:105280005A1C42D106236360002206920EAACDE981
:1052900004920DAA4BF4806303920DF13302CDE921
:1052A00001322360636842460093284653460B91BF
:1052B000FFF7D4FE0B99804647290D9908D1C81CE9
:1052C00002DB6368994240DDA9F102095FFA89F9BE
:1052D000B9F1650F1FD84A46013904F150000D910C
:1052E000FFF71BFF0E9A82461318012A236102DC86
:1052F0002268D20701D5013323619DF83330002B9A
:105300009BD02D2384F8433097E74729BCD1002B4D
:10531000BAD10123B7E7B9F1660F18D10029636844
:105320000BDD216113B92268D00702D501330B448C
:1053300023614FF0000AA165DFE713B92268D207A5
:1053400001D50233F4E70123F2E74FF067090E9B22
:10535000994205DB23682161D807EAD54B1CE7E7B2
:105360000029CCBF0122C1F102021344E0E7236807
:105370005A0507D42369424631462846B8470130CA
:105380002BD164E7B9F1650F40F2DD80D4E9120159
:1053900000220023FBF708FB002833D0012331460D
:1053A0002846354AB84701303FF451AFDDE90D23B7
:1053B0009A4202DB2368D8070FD5DDE9092331467D
:1053C0002846B84701303FF442AF4FF0000804F1DF
:1053D0001A090E9B013B434509DC23689B0700F13A
:1053E0000281E0680F9B9842B8BF184631E701235D
:1053F0004A4631462846B84701303FF428AF08F105
:105400000108E6E70D9B002B38DC012331462846D6
:10541000194AB84701303FF41AAFDDE90D231343B1
:1054200002D12368D907D8D5DDE9092331462846BA
:10543000B84701303FF40BAF4FF0000904F11A0AEE
:105440000D9B5B424B4501DC0E9B94E701235246CA
:1054500031462846B84701303FF4F9AE09F1010959
:10546000EEE700BFFFFFEF7FCCD90008D0D90008DE
:1054700083990008D4D90008609900080E9AA36D9A
:105480009A42A8BF1A46002A914637DC4FF0000B1B
:1054900029EAE97904F11A02D4F858A0AAEB090321
:1054A0005B4533DCDDE90D239A423BDB2368DA07F9
:1054B00038D40E9B0D99A3EB0A02A3EB0109914589
:1054C000A8BF9146B9F1000F34DC4FF0000829EA7B
:1054D000E97904F11A0ADDE90D239B1AA3EB09030C
:1054E00043457FF77AAF0123524631462846B847F5
:1054F00001303FF4ACAE08F10108ECE71346314649
:1055000042462846B8470130C0D1A0E601233146C3
:1055100028460B92B84701303FF499AE0B9A0BF135
:10552000010BB9E73146DDE909232846B8470130C8
:10553000BFD18CE64B463146284608EB0A02B847F5
:105540000130C2D183E60E9A012A01DCDB0737D590
:105550000123424631462846B84701303FF477AE32
:10556000DDE9092331462846B84701303FF46FAEE4
:10557000D4E9120100220023FBF716FAD8B90E9BDA
:1055800008F10102013B31462846B84701300ED1EF
:105590005DE601234A4631462846B84701303FF4CC
:1055A00056AE08F101080E9B013B4345F1DC534622
:1055B00004F15002E0E64FF0000804F11A09F2E7A6
:1055C00001234246DFE701234A4631462846B847D1
:1055D00001303FF43CAE08F10108E3680F995B1A13
:1055E0004345F0DCFDE64FF0000804F11909F4E74B
:1055F0002DE9F047164699468A680B69074693429B
:10560000B8BF1346336091F843200C46DDF8208084
:105610000AB1013333602368990642BF336802330D
:105620003360256815F0060506D104F1190AE36810
:1056300032689B1AAB4228DC94F84320131E226880
:1056400018BF012392062DD44946384604F143027F
:10565000C047013020D02368E56803F00603042B1F
:1056600018BF002532684FF00006A36808BFAD1AC6
:10567000226908BF25EAE5759342C4BF9B1AED185D
:105680001A34B5421AD1002008E001235246494697
:105690003846C047013003D14FF0FF30BDE8F087F6
:1056A0000135C4E73020E11881F843005A1C94F812
:1056B00045102244023382F84310C5E701232246F5
:1056C00049463846C0470130E6D00136D9E70000E8
:1056D0002DE9FF470F7E9146782F80460C469A466B
:1056E0000C9D01F1430207D8622F0AD8002F00F069
:1056F000D980582F00F0A48004F1420584F842704C
:105700003AE0A7F16303152BF6D801A151F823F075
:10571000695700087D570008F9560008F956000837
:10572000F9560008F95600087D570008F956000898
:10573000F9560008F9560008F95600088B58000879
:10574000AD5700086D580008F9560008F9560008D2
:10575000AD580008F9560008AD570008F956000882
:10576000F9560008755800082B681A1D1B682A6036
:1057700004F1420584F842300123A4E0206829683E
:10578000060601F104030AD50E682B60002E03DA29
:105790002D23764284F843300A235E4819E00E68D0
:1057A00010F0400F2B6018BF36B2EFE72B6820686F
:1057B000191D2960010601D51E6802E04606FBD5C9
:1057C0001E886F2F0CBF08230A235248002184F83B
:1057D00043106568002DA8BF2168A560A4BF21F013
:1057E000040121600EB9002D4DD01546B6FBF3F132
:1057F00003FB1167C75D05F8017D3746BB420E46C6
:10580000F4D9082B0BD12368DE0708D5236961681A
:105810009942DEBF302305F8013C05F1FF35521BEC
:1058200022614B4621464046CDF800A003AAFFF76F
:10583000DFFE01304CD14FF0FF3004B0BDE8F087FF
:10584000344881F845702968236851F8046B296051
:105850001D0614D5DF0744BF43F0200323601EB9A3
:10586000236823F0200323601023AFE7236843F06D
:10587000200323607823284884F84530E3E759065D
:1058800048BFB6B2E6E71546BBE72B682668181D89
:105890006169286035061B6801D5196002E0700651
:1058A000FBD51980002315462361BAE72B68002138
:1058B0001A1D2A601D686268284602F0EFFA08B1D6
:1058C000401B606063682361002384F84330A8E7CD
:1058D0002A46494640462369D0470130ABD0236869
:1058E0009B0713D4E068039B9842B8BF1846A4E70F
:1058F0000123324649464046D04701309BD001350E
:10590000E36803995B1AAB42F2DCEBE7002504F194
:105910001906F5E7D8D90008E9D900082DE9F04FB4
:1059200087B003938B6817465A1EB2F5AE7F85BFCA
:105930006FF4AE755B190023029388BF40F25D13CC
:105940008B464FF000058CBF8B6002930B6880463E
:1059500043F4F0634BF81C3B0C465E46AA46A9464E
:10596000CDE904550195A26852B13B681B784E2BD6
:1059700064D8402B3CD8A3F12B01C8B20E283AD9E9
:10598000B9F1000F03D0236823F4807323600AF178
:10599000FF3ABAF1010F00F213815E4500F2058172
:1059A0000125284607B0BDE8F08FA3F161020D2A5A
:1059B000E6D801A151F822F0F75A000881590008F1
:1059C0008159000881590008575B00082F5B0008C7
:1059D0008159000881590008055B000881590008B9
:1059E000815900088159000881590008BD5A0008F2
:1059F000A3F14102DBE70E29C2D801A050F821F043
:105A0000AF5A000881590008AF5A0008435B0008EC
:105A1000815900085D5A0008995A0008995A0008EF
:105A2000995A0008995A0008995A0008995A00088A
:105A3000995A0008995A0008995A00086E2B09D8FB
:105A4000602BB2D8542B77D0592B99D1072D97D1F1
:105A5000082529E0742B6FD0792BF6E72168C8055B
:105A60001AD5029B21F08001216009F101091BB1C7
:105A7000013B01320293A260A368013BA36023694A
:105A8000013323617B68013B002B7B6040F3848002
:105A90003B6801333B6066E71AEB050F7FF470AF9C
:105AA000226822F4C072226006F8013BE4E7226813
:105AB00010067FF565AF22F08002F4E7BAF1000F1F
:105AC0000ED1B9F1000F0ED1226802F4E061B1F5F8
:105AD000E06F08D122F4F0624FF0010A2260E3E7A0
